:0600000000F060EF1FF0AC
:103EBE00FFFF00018EEF1FF0FFFF480ED56EE20EE2
:103ECE00D66E1200FFFFFFFF070E8D6E0A0EFFFF6C
:103EDE00E82EFDD7000E8D6E1200FFFFFFFF000EC5
:103EEE00896E000E8A6E000E8C6E000E8D6E1200A4
:103EFE00FFFFFFFFFFFF070E926E070E936E000E81
:103F0E00956E000E966E060EC16E1200FFFFFFFF3D
:103F1E0081EC1FF075EC1FF063EC1FF0FFFF000E3D
:103F2E00046E000E036E000E066E000E056E000E81
:103F3E00086E000E076E000E0A6E000E096E000E61
:103F4E000B6E000E0C6E6AEC1FF01BD0FFFF81A0F3
:103F5E0003D0016A012A02D0FFFF016AFFFF81A28E
:103F6E0003D0026A022A02D0FFFF026AFFFF81A479
:103F7E0002D0010E02D0FFFF000EFFFF021401144B
:103F8E000C6EFFFF0C50D8B4E1D7010E0C6ED58E1F
:103F9E001AD0FFFFF2A417D0F294E20ED66E0C5098
:103FAE00D8B411D08150010E0B6E000E0C6E8150E4
:103FBE00020E0B6E000E0C6E8150030E0B6E000E79
:103FCE000C6E094A0A2AFFFFB90E095C0B0E0A583D
:103FDE00D8A0DFD70BC08CFFD58EF294E20ED66E32
:103FEE002F0E016EC80EFFFFE82EFDD7012EFBD758
:023FFE0095D755
:020000040020DA
:08000000FFFFFFFFFFFFFFFF00
:020000040030CA
:0E000000FF260C0EFF0181FF0FC00FE00F4026
:00000001FF
