:020000040000FA
:0600000083EF02F0120084
:0A00060001002405000000010000C5
:04001000FF000000ED
:0C001400070EC16E926A936A946A956AA6
:10002000966A010E00018C6F8D6B8E6B8F6B8A6BE5
:100030008B6B000E8A25E96E010E8B21EA6EEF5064
:10004000816E80908CC0E6FF63EC02F0E552808008
:1000500000018A2B000E8B23000E8A25E96E010E0B
:100060008B21EA6EEF50816E80928CC0E6FF63ECCC
:1000700002F0E552808200018A2B000E8B23000ED5
:100080008A25E96E010E8B21EA6EEF50816E809415
:100090008CC0E6FF63EC02F0E552808400018A2BFD
:1000A000000E8B23000E8A25E96E010E8B21EA6E6D
:1000B000EF50816E80968CC0E6FF63EC02F0E55253
:1000C000808600018A2B000E8B23000E8A25E96EA4
:1000D000010E8B21EA6EEF50816E80988CC0E6FF96
:1000E00063EC02F0E552808800018A2B000E8B231E
:1000F000000E8A25E96E010E8B21EA6EEF50816EAB
:10010000809A8CC0E6FF63EC02F0E552808A000121
:100110008A2B000E8B23000E8A25E96E010E8B219F
:10012000EA6EEF50816E82908CC0E6FF63EC02F0C5
:10013000E552828000018A2B000E8B23000E8A2557
:10014000E96E010E8B21EA6EEF50816E82928CC0B7
:10015000E6FF63EC02F0E552828200018A2B000E7A
:100160008B23000E8A25E96E010E8B21EA6EEF507B
:10017000816E82948CC0E6FF63EC02F0E5528284CB
:1001800000018A2B000E8B23000E8A25E96E010EDA
:100190008B21EA6EEF50816E82968CC0E6FF63EC95
:1001A00002F0E552828600018A2B000E8B23000E9E
:1001B0008A25E96E010E8B21EA6EEF50816E8298DE
:1001C0008CC0E6FF63EC02F0E552828800018A2BC6
:1001D000000E8B23000E8A25E96E010E8B21EA6E3C
:1001E000EF50816E829A8CC0E6FF63EC02F0E5521C
:1001F000828A00018A2B000E8B23000E8A25E96E6D
:10020000010E8B21EA6EEF50816E829C8CC0E6FF5E
:1002100063EC02F0E552828C00018A2B000E8B23E6
:10022000000E8A25E96E010E8B21EA6EEF50816E79
:10023000829E8CC0E6FF63EC02F0E552828E0001E4
:100240008A2B000E8B23000E8A25E96E010E8B216E
:10025000EA6EEF50816E83908CC0E6FF63EC02F093
:10026000E552838000018A2B000E8B23000E8A2525
:10027000E96E010E8B21EA6EEF50816E83928CC085
:10028000E6FF63EC02F0E552838200018A2B000E48
:100290008B23000E8A25E96E010E8B21EA6EEF504A
:1002A000816E83948CC0E6FF63EC02F0E552838498
:1002B00000018A2B000E8B23000E8A25E96E010EA9
:1002C0008B21EA6EEF50816E83968CC0E6FF63EC63
:1002D00002F0E552838600018A2B000E8B23000E6C
:1002E0008A25E96E010E8B21EA6EEF50816E8398AC
:1002F0008CC0E6FF63EC02F0E552838800018A2B94
:10030000000E8B23000E8A25E96E010E8B21EA6E0A
:10031000EF50816E839A8CC0E6FF63EC02F0E552E9
:10032000838A00018A2B000E8B23000E8A25E96E3A
:10033000010E8B21EA6EEF50816E839C8CC0E6FF2C
:1003400063EC02F0E552838C00018A2B000E8B23B4
:10035000000E8A25E96E010E8B21EA6EEF50816E48
:10036000839E8CC0E6FF63EC02F0E552838E0001B1
:100370008A2B000E8B23000E8A25E96E010E8B213D
:10038000EA6EEF50816E84908CC0E6FF63EC02F061
:10039000E552848000018A2B000E8B23000E8A25F3
:1003A000E96E010E8B21EA6EEF50816E84928CC053
:1003B000E6FF63EC02F0E552848200018A2B000E16
:1003C0008B23000E8A25E96E010E8B21EA6EEF5019
:1003D000816E84948CC0E6FF63EC02F0E552848465
:1003E0000001180E8A5F000E8B5B8E2B8F23060E8A
:1003F0008FAF02D0D89003D08E5D000E8F5912E3DC
:10040000010E8A258A6F000E8B218B6F8E6B8F6B8E
:10041000C80E8BAF02D0D89003D08A5D000E8B59E6
:0804200001E301D006D6120031
:08042800060EF66E000EF76EE1
:10043000000EF86E00010900F550856F0900F550B7
:10044000866F03E1856701D03DD00900F550806FCC
:100450000900F550816F0900F550826F090009000D
:10046000F550E96E0900F550EA6E0900090009002F
:10047000F550836F0900F550846F09000900F6CF2D
:1004800087F0F7CF88F0F8CF89F080C0F6FF81C001
:10049000F7FF82C0F8FF0001835302E1845307E0B5
:1004A0000900F550EE6E8307F8E28407F9D787C09C
:1004B000F6FF88C0F7FF89C0F8FF00018507000E2E
:0604C000865BBFD71200AD
:0A04C600FF0EE350026E480E01D055
:1004D0004C0EE76EE72EFED7E76AE72EFED7022E18
:0604E000F7D70000120036
:0A04E600000EF36E00EE00F0060EAB
:1004F00001D81200EA6002D0EE6AFCD7F350E9603E
:060500001200EE6AFCD7B8
:0A05060015EE00F025EE00F0F86A93
:10051000019C14EC02F091EC02F00AEC00F0FBD725
:020520001200C7
:020522001200C5
:0C0524007E8989897E00FF040810FF001A
:10053000FFC1C1C13E00FFC9C9C9C100FF8999A956
:10054000460026C9C9C932003EC1C1C13E00FF04F0
:100550000810FF000026C9C9C932008181FF8181CE
:1005600000C1C1FFC1C1009F2040209F00FFC9C939
:10057000C9C100FF040810FF00003EC1C1C1C10095
:100580007E8989897E00FF020402FF007E898989B5
:100590007E00FF8999A94600FFC9C9C9FB003EC179
:1005A000C1C13E0026C9C9C932007E8989897E0041
:1005B0007E8989897E009F2040209F00FFC9C9C98C
:1005C000C100FFC1C1C13E00FF8989A946007E89E3
:1005D00089897E000022C1C9C9360026C9C9C93E21
:1005E00000AFC9C9C9B1008181F98583000000004D
:1005F00000000000000000000000000000000000FB
:1006000000000000000000000000000000000000EA
:1006100000000000000000000000000000000000DA
:03062000000000D7
:00000001FF
