:020000040000FA
:0600000083EF02F0120084
:0A00060001002405000000010000C5
:04001000DC00000010
:0C001400070EC16E926A936A946A956AA6
:10002000966A010E0101E86FE96BEA6BEB6BE66B18
:10003000E76B000EE625E96E010EE721EA6EEF5050
:10004000816E8090E8C1E6FF63EC02F0E5528080AB
:100050000101E62B000EE723000EE625E96E010EF6
:10006000E721EA6EEF50816E8092E8C1E6FF63EC13
:1000700002F0E55280820101E62B000EE723000E1C
:10008000E625E96E010EE721EA6EEF50816E80945D
:10009000E8C1E6FF63EC02F0E55280840101E62B43
:1000A000000EE723000EE625E96E010EE721EA6E59
:1000B000EF50816E8096E8C1E6FF63EC02F0E552F6
:1000C00080860101E62B000EE723000EE625E96E8F
:1000D000010EE721EA6EEF50816E8098E8C1E6FFDD
:1000E00063EC02F0E55280880101E62B000EE72365
:1000F000000EE625E96E010EE721EA6EEF50816EF3
:10010000809AE8C1E6FF63EC02F0E552808A0101C3
:10011000E62B000EE723000EE625E96E010EE7212F
:10012000EA6EEF50816E8290E8C1E6FF63EC02F068
:10013000E55282800101E62B000EE723000EE62542
:10014000E96E010EE721EA6EEF50816E8292E8C1FE
:10015000E6FF63EC02F0E55282820101E62B000E1D
:10016000E723000EE625E96E010EE721EA6EEF5067
:10017000816E8294E8C1E6FF63EC02F0E55282846E
:100180000101E62B000EE723000EE625E96E010EC5
:10019000E721EA6EEF50816E8296E8C1E6FF63ECDC
:1001A00002F0E55282860101E62B000EE723000EE5
:1001B000E625E96E010EE721EA6EEF50816E829826
:1001C000E8C1E6FF63EC02F0E55282880101E62B0C
:1001D000000EE723000EE625E96E010EE721EA6E28
:1001E000EF50816E829AE8C1E6FF63EC02F0E552BF
:1001F000828A0101E62B000EE723000EE625E96E58
:10020000010EE721EA6EEF50816E829CE8C1E6FFA5
:1002100063EC02F0E552828C0101E62B000EE7232D
:10022000000EE625E96E010EE721EA6EEF50816EC1
:10023000829EE8C1E6FF63EC02F0E552828E010186
:10024000E62B000EE723000EE625E96E010EE721FE
:10025000EA6EEF50816E8390E8C1E6FF63EC02F036
:10026000E55283800101E62B000EE723000EE62510
:10027000E96E010EE721EA6EEF50816E8392E8C1CC
:10028000E6FF63EC02F0E55283820101E62B000EEB
:10029000E723000EE625E96E010EE721EA6EEF5036
:1002A000816E8394E8C1E6FF63EC02F0E55283843B
:1002B0000101E62B000EE723000EE625E96E010E94
:1002C000E721EA6EEF50816E8396E8C1E6FF63ECAA
:1002D00002F0E55283860101E62B000EE723000EB3
:1002E000E625E96E010EE721EA6EEF50816E8398F4
:1002F000E8C1E6FF63EC02F0E55283880101E62BDA
:10030000000EE723000EE625E96E010EE721EA6EF6
:10031000EF50816E839AE8C1E6FF63EC02F0E5528C
:10032000838A0101E62B000EE723000EE625E96E25
:10033000010EE721EA6EEF50816E839CE8C1E6FF73
:1003400063EC02F0E552838C0101E62B000EE723FB
:10035000000EE625E96E010EE721EA6EEF50816E90
:10036000839EE8C1E6FF63EC02F0E552838E010153
:10037000E62B000EE723000EE625E96E010EE721CD
:10038000EA6EEF50816E8490E8C1E6FF63EC02F004
:10039000E55284800101E62B000EE723000EE625DE
:1003A000E96E010EE721EA6EEF50816E8492E8C19A
:1003B000E6FF63EC02F0E55284820101E62B000EB9
:1003C000E723000EE625E96E010EE721EA6EEF5005
:1003D000816E8494E8C1E6FF63EC02F0E552848408
:1003E0000101180EE65F000EE75BEA2BEB230A0E15
:1003F000EBAF02D0D89003D0EA5D000EEB5912E3C8
:10040000010EE625E66F000EE721E76FEA6BEB6B66
:10041000C80EE7AF02D0D89003D0E65D000EE759D2
:0804200001E301D006D6120031
:08042800060EF66E000EF76EE1
:10043000000EF86E01010900F550E16F0900F5505A
:10044000E26F03E1E16701D03DD00900F550DC6FB8
:100450000900F550DD6F0900F550DE6F0900090055
:10046000F550E96E0900F550EA6E0900090009002F
:10047000F550DF6F0900F550E06F09000900F6CF75
:10048000E3F1F7CFE4F1F8CFE5F1DCC1F6FFDDC130
:10049000F7FFDEC1F8FF0101DF5302E1E05307E09F
:1004A0000900F550EE6EDF07F8E2E007F9D7E3C187
:1004B000F6FFE4C1F7FFE5C1F8FF0101E107000E17
:0604C000E25BBFD7120051
:0A04C600FF0EE350026E480E01D055
:1004D0004C0EE76EE72EFED7E76AE72EFED7022E18
:0604E000F7D70000120036
:0A04E600000EF36E00EE00F0060EAB
:1004F00001D81200EA6002D0EE6AFCD7F350E9603E
:060500001200EE6AFCD7B8
:0A05060015EE00F025EE00F0F86A93
:10051000019C14EC02F091EC02F00AEC00F0FBD725
:020520001200C7
:020522001200C5
:0C0524000000FF040810FF00C1C1FFC16F
:10053000C1003EC1C1C1C1003EC1C1C13E00FF40BA
:10054000404040007E8989897E0046C9C9C9B10002
:1005500000007E8989897E00FF4040404000FFC93D
:10056000C9C93600FFC9C9C9C100FF8999A9460098
:100570008181FF8181003EC1C1C13E0000007E89B2
:1005800089897E00FF8999A94600C1C1FFC1C100C8
:100590007E8989897E0046C9C9C9B10000003EC173
:1005A000C1C13E008181FF8181007E8989897E00F1
:1005B000FF40404040003EC1C1C13E00FF8999A9B3
:1005C00046007E8989897E0000000022C9C9C9369B
:1005D0000026C9C9C93E00A7C5C5C5B90036C9C9E5
:1005E000C936003EC9C9C930000000000000000043
:1005F00000000000000000000000000000000000FB
:00000001FF
