:020000040000FA
:0600000042EF02F01200C5
:0A0006000100A20400008A000000BF
:040010000A000000E2
:0C001400936A1C0E926E070EC16E808075
:1000200080828050080B6EE18050100B6BE1000164
:10003000946B956B966B976B0A0E97AF02D0D89026
:1000400003D0965D000E97595BE20A0E95AF02D081
:10005000D89003D0945D000E95594BE2986B996B44
:10006000140E99AF02D0D89003D0985D000E995924
:1000700039E28050080B35E18050100B32E18A0ED6
:100080009425E96E000E9521EA6EEF50816E809006
:10009000010EE66E0BEC02F0E55280808A0E000144
:1000A0009625E96E000E9721EA6EEF50816E8092E0
:1000B000010EE66E0BEC02F0E552808280A40CD0BB
:1000C0000001946B956B966B976B140E986F996B00
:1000D000030E945F000E955B0001982B000E992390
:1000E000BFD749D1030E9425946F000E9521956FCB
:1000F000ACD70A0E945F000E955B962B97239CD786
:1001000096D739D18050080B69E08050100B66E11A
:10011000090E0001966F976B080E946F956B800E19
:1001200097155AE1800E95154DE1986B996B140E59
:1001300099AF02D0D89003D0985D000E99593DE256
:100140008050080B39E08050100B36E18A0E942560
:10015000E96E000E9521EA6EEF50816E80900A0ED6
:10016000E66E22EC02F0E55280808A0E00019625B0
:10017000E96E000E9721EA6EEF50816E80920A0EB2
:10018000E66E22EC02F0E552808280A410D0080EC8
:100190000001946F956B090E966F976B140E986F14
:1001A000996B020E9425946F000E9521956F0001B6
:1001B000982B000E9923BBD7DED0020E945F000E61
:1001C000955BB0D70A0E9425946F000E9521956F1C
:1001D0009607000E975BA3D79BD7CDD08050080B16
:1001E0006EE18050100B6BE00001946B956B966B89
:1001F000976B0A0E97AF02D0D89003D0965D000E91
:1002000097595BE20A0E95AF02D0D89003D0945D67
:10021000000E95594BE2986B996B140E99AF02D072
:10022000D89003D0985D000E995939E28050080BA0
:1002300035E18050100B32E08A0E9425E96E000EF5
:100240009521EA6EEF50816E8090010EE66E0BEC08
:1002500002F0E55280808A0E00019625E96E000EBC
:100260009721EA6EEF50816E8092010EE66E0BECE4
:1002700002F0E552808280A40CD00001946B956B53
:10028000966B976B140E986F996B040E945F000E2B
:10029000955B0001982B000E9923BFD76CD0040EFC
:1002A0009425946F000E9521956FACD70A0E945F3C
:1002B000000E955B962B97239CD796D75CD08050E9
:1002C000080B59E08050100B56E00001946B956BC1
:1002D000090E966F976B800E97154CE1090E966F7D
:1002E000976B800E971545E1986B996B140E99AF3B
:1002F00002D0D89003D0985D000E995936E2805014
:10030000080B32E08050100B2FE08A0E9425E96E26
:10031000000E9521EA6EEF50816E8090010EE66E20
:100320000BEC02F0E55280808A0E00019625E96E02
:10033000000E9721EA6EEF50816E8092010EE66EFC
:100340000BEC02F0E552808280A409D0090E000176
:10035000946F956B966B976B140E986F996B000169
:10036000982B000E9923C2D706D09607000E975BF4
:08037000B8D7B1D7AAD71200DB
:08037800060EF66E000EF76E92
:10038000000EF86E00010900F550856F0900F55068
:10039000866F03E1856701D03DD00900F550806F7D
:1003A0000900F550816F0900F550826F09000900BE
:1003B000F550E96E0900F550EA6E090009000900E0
:1003C000F550836F0900F550846F09000900F6CFDE
:1003D00087F0F7CF88F0F8CF89F080C0F6FF81C0B2
:1003E000F7FF82C0F8FF0001835302E1845307E066
:1003F0000900F550EE6E8307F8E28407F9D787C04D
:10040000F6FF88C0F7FF89C0F8FF00018507000EDE
:06041000865BBFD712005D
:0A041600FF0EE350036EEF0E01D05D
:10042000F30EE76EE72E12EF02F00C0E026EE76A93
:10043000E72E18EF02F0022E17EF02F0032E10EF56
:0404400002F01200B4
:0C044400FF0EE350036E480E01D04C0E7A
:10045000E76EE72EFED7E76AE72EFED7032EF7D723
:040460000000120086
:0C046400000EF36E00EE00F0060E01D852
:100470001200EA6002D0EE6AFCD7F350E960120085
:04048000EE6AFCD74D
:0C04840015EE00F025EE00F0F86A019C77
:10049000BCEC01F050EC02F00AEC00F0FBD71200CB
:0204A000120048
:0A04A2003F065B4F666D7D077F6F1C
:00000001FF
