:020000040000FA
:0600000036EF05F01200CE
:0A00060001009C0A00008A000000BF
:040010000A000000E2
:0C001400000000000000000000000000E0
:1000200000000000000000000000000000D01200EE
:100030000F0EE66E16EC05F0E55200D01200050E2C
:10004000E66E16EC05F0E55200D01200070EC16E08
:100050009268280EE66EECEC02F0E552060EE66EB3
:100060004CEC04F0E5520E0EE66E4CEC04F0E5525A
:10007000800EE66E4CEC04F0E552880EE66E0A0E39
:10008000E66EFCEC03F0E552E5528050020B01E015
:10009000B0D08050040B01E0ACD00001986B996B9C
:1000A000966B976B946B956B0A0E99AF02D0D890B4
:1000B00003D0985D000E995901E399D00A0E97AFCD
:1000C00002D0D89003D0965D000E975901E388D0F6
:1000D0000A0E95AF02D0D89003D0945D000E9559CA
:1000E00001E377D08050020B73E18050040B70E184
:1000F000C00EE66E4CEC04F0E552530EE66E25ECB5
:1001000004F0E552C10EE66E4CEC04F0E552450EEB
:10011000E66E25EC04F0E552C20EE66E4CEC04F0FF
:10012000E552430EE66E25EC04F0E552C40EE66E91
:100130004CEC04F0E552310EE66E25EC04F0E5528D
:10014000CF0EE66E4CEC04F0E5528A0E00019425C9
:10015000E96E000E9521EA6EEF50E66E25EC04F094
:10016000E552CE0EE66E4CEC04F0E5528A0E00012C
:100170009625E96E000E9721EA6EEF50E66E25ECAB
:1001800004F0E552CD0EE66E4CEC04F0E5528A0E1A
:1001900000019825E96E000E9921EA6EEF50E66E97
:1001A00025EC04F0E552640EE66EFFEC04F0E55237
:1001B000030E00019425946F000E9521956F80A089
:1001C00006D0986B996B966B976B946B956B80D7F9
:1001D00002D20A0E945F000E955B962B97236ED782
:1001E0000A0E965F000E975B982B99235DD755D723
:1001F000F2D18050020B01E1A3D08050040B01E04A
:100200009FD0090E0001986F996B966F976B080E3F
:10021000946F956B800E991501E08DD0800E971527
:1002200001E085D0800E951501E077D08050020B5B
:1002300073E08050040B70E1C00EE66E4CEC04F0ED
:10024000E552530EE66E25EC04F0E552C10EE66E63
:100250004CEC04F0E552450EE66E25EC04F0E55258
:10026000C20EE66E4CEC04F0E552430EE66E25EC51
:1002700004F0E552C40EE66E4CEC04F0E552320E8A
:10028000E66E25EC04F0E552CF0EE66E4CEC04F081
:10029000E5528A0E00019425E96E000E9521EA6E62
:1002A000EF50E66E25EC04F0E552CE0EE66E4CEC17
:1002B00004F0E5528A0E00019625E96E000E9721A2
:1002C000EA6EEF50E66E25EC04F0E552CD0EE66ED8
:1002D0004CEC04F0E5528A0E00019825E96E000E00
:1002E0009921EA6EEF50E66E25EC04F0E552640EBB
:1002F000E66EFFEC04F0E5520001020E945F000E82
:10030000955B80A008D0090E986F996B966F976BDC
:10031000080E946F956B86D75ED10A0E9425946F64
:10032000000E9521956F9607000E975B77D798077B
:10033000000E995B6FD79807000E995B62D74BD17F
:100340008050020B01E0B0D08050040B01E1ACD032
:100350000001986B996B966B976B946B956B0A0E7B
:1003600099AF02D0D89003D0985D000E995901E35F
:1003700099D00A0E97AF02D0D89003D0965D000EA8
:10038000975901E388D00A0E95AF02D0D89003D0D8
:10039000945D000E955901E377D08050020B73E114
:1003A0008050040B70E0C00EE66E4CEC04F0E55299
:1003B000530EE66E25EC04F0E552C10EE66E4CECF1
:1003C00004F0E552450EE66E25EC04F0E552C20E4F
:1003D000E66E4CEC04F0E552430EE66E25EC04F0BC
:1003E000E552C40EE66E4CEC04F0E552330EE66EB8
:1003F00025EC04F0E552CF0EE66E4CEC04F0E5522D
:100400008A0E00019425E96E000E9521EA6EEF50E8
:10041000E66E25EC04F0E552CE0EE66E4CEC04F0F0
:10042000E5528A0E00019625E96E000E9721EA6ECC
:10043000EF50E66E25EC04F0E552CD0EE66E4CEC86
:1004400004F0E5528A0E00019825E96E000E99210C
:10045000EA6EEF50E66E25EC04F0E552640EE66EAF
:10046000FFEC04F0E552040E00019425946F000E99
:100470009521956F80A006D0986B996B966B976BC2
:10048000946B956B80D7A7D00A0E945F000E955B96
:10049000962B97236ED70A0E965F000E975B982BCC
:1004A00099235DD755D797D08050020B01E193D0A7
:1004B0008050040B01E18FD0090E0001986F996BF9
:1004C000966F976B946B956B800E991501E082D0B7
:1004D000800E971575E18050020B71E08050040B7F
:1004E0006EE0C00EE66E4CEC04F0E552530EE66E84
:1004F00025EC04F0E552C10EE66E4CEC04F0E5523A
:10050000450EE66E25EC04F0E552C20EE66E4CECAC
:1005100004F0E552430EE66E25EC04F0E552C40EFD
:10052000E66E4CEC04F0E552340EE66E25EC04F079
:10053000E552CF0EE66E4CEC04F0E5528A0E000157
:100540009425E96E000E9521EA6EEF50E66E25ECDB
:1005500004F0E552CE0EE66E4CEC04F0E5528A0E45
:1005600000019625E96E000E9721EA6EEF50E66EC7
:1005700025EC04F0E552CD0EE66E4CEC04F0E552AD
:100580008A0E00019825E96E000E9921EA6EEF505F
:10059000E66E25EC04F0E552640EE66EFFEC04F026
:1005A000E55200019607000E975B80A007D0090E68
:1005B000986F996B966F976B946B956B89D70BD0EF
:1005C0000A0E9625966F000E9721976F9807000EDA
:0805D000995B7AD771D7120084
:0805D800D9CFE6FFE1CFD9FF06
:1005E000F00E81169316939C939A93988A9C8A9AFC
:1005F0008A9818EC00F0300EE66E4CEC04F0E552F0
:10060000050EE66EFFEC04F0E552300EE66E4CECA3
:1006100004F0E552010EE66EFFEC04F0E552320EF6
:10062000E66E4CEC04F0E552E0EC04F0000901E069
:10063000FBD7E0EC04F0000901E0FBD7FE0EDBCFB6
:10064000E6FF4CEC04F0E552E0EC04F0000901E0B8
:10065000FBD7080EE66E4CEC04F0E552E0EC04F03B
:10066000000901E0FBD70F0EE66E4CEC04F0E552FA
:10067000E0EC04F0000901E0FBD7010EE66E4CEC63
:1006800004F0E552E0EC04F0000901E0FBD7040EB1
:10069000E66E4CEC04F0E552E0EC04F0000901E0F9
:1006A000FBD7800EE66EAAEC03F0E55200D0E552CF
:0606B000E7CFD9FF1200A4
:0A06B600060EF66E000EF76E000E41
:1006C000F86E00010900F550856F0900F550866F3E
:1006D00003E1856701D03DD00900F550806F090026
:1006E000F550816F0900F550826F09000900F5503F
:1006F000E96E0900F550EA6E090009000900F5509D
:10070000836F0900F550846F09000900F6CF87F068
:10071000F7CF88F0F8CF89F080C0F6FF81C0F7FFEF
:1007200082C0F8FF0001835302E1845307E009000F
:10073000F550EE6E8307F8E28407F9D787C0F6FF1D
:1007400088C0F7FF89C0F8FF00018507000E865BAF
:04075000BFD71200FD
:0C075400D9CFE6FFE1CFD9FFF00E9316DD
:100760008116FE0EDB508009E8380F0B0F0B81124B
:100770008A9C8A9A0AEC00F08A880AEC00F08A982F
:10078000F00E8116FE0EDB500F0B81120AEC00F00A
:100790008A880AEC00F08A980F0E931200D0E55276
:0607A000E7CFD9FF1200B3
:0A07A600D9CFE6FFE1CFD9FFF00E36
:1007B00093168116FE0EDB504009E8380F0B0F0B25
:1007C00081128A9C8A9A0AEC00F08A880AEC00F06E
:1007D0008A98F00E8116FE0EDB500F0B81120AEC88
:1007E00000F08A880AEC00F08A980F0E931200D06D
:0807F000E552E7CFD9FF12002A
:0807F800D9CFE6FFE1CFD9FFE4
:10080000FD0EDBCFF6FFFE0EDBCFF7FF0800F55045
:1008100017E0E0EC04F0000901E0FBD7FD0EDBCFB0
:10082000F6FFFE0EDBCFF7FF0800F550E66E25EC75
:1008300004F0E552FD0EDB2AFE0E01E3DB2AE0D7D1
:0A08400000D0E552E7CFD9FF120007
:06084A00D9CFE6FFE1CF6B
:10085000D9FFF00E93168116FE0EDB380F0B0F0B2F
:1008600081128A8A8A9C0AEC00F08A880AEC00F0DD
:100870008A98F00E8116FE0EDB500F0B81120AECE7
:1008800000F08A880AEC00F08A980F0E931200D0CC
:08089000E552E7CFD9FF120089
:08089800D9CFE6FFE1CFD9FF43
:1008A000F00E93168116FE0EDB380F0B0F0B811224
:1008B0008A9C8A9A0AEC00F08A880AEC00F08A98EE
:1008C000F00E8116FE0EDB500F0B81120AEC00F0C9
:1008D0008A880AEC00F08A980F0E931200D0E55235
:0608E000E7CFD9FF120072
:0A08E600D9CFE6FFE1CFD9FFFD0EE8
:1008F000DBCFE9FFFE0EDBCFEAFFEF5016E0E0ECC6
:1009000004F0000901E0FBD7FD0EDBCFE9FFFE0E8E
:10091000DBCFEAFFEF50E66E25EC04F0E552FD0E6A
:10092000DB2AFE0E01E3DB2AE2D700D0E552E7CF57
:04093000D9FF1200D9
:0C093400D9CFE6FFE1CFD9FFE6528A8C54
:100940008A8A0AEC00F08A880AEC00F08138F00B01
:10095000F00BDF6E8A980AEC00F08A880AEC00F04F
:100960000F0E8114DF128A988A9A8A9CDF5000D079
:0A097000E552E552E7CFD9FF12006F
:06097A00D9CFE6FFE1CF3A
:10098000D9FFE6528A8C8A9A0AEC00F08A880AEC2F
:1009900000F08138F00BF00BDF6E8A980AEC00F063
:1009A0008A880AEC00F00F0E8114DF128A988A9C64
:1009B0007F0EDF1400D0E552E552E7CFD9FF1200D9
:1009C0008A8C8A9A0AEC00F08A880AEC00F081A6E8
:1009D0000BD08A980AEC00F08A880AEC00F08A981A
:1009E0008A9C010E0BD00AD08A980AEC00F08A8803
:0E09F0000AEC00F08A988A9C000E00D01200DB
:0209FE00FF0EEA
:100A0000E350036EEF0E01D0F30EE76EE72E06EF14
:100A100005F00C0E026EE76AE72E0CEF05F0022ED1
:0C0A20000BEF05F0032E04EF05F01200B0
:040A2C00FF0EE35086
:100A3000036E480E01D04C0EE76EE72EFED7E76A34
:0C0A4000E72EFED7032EF7D700001200AF
:040A4C00000EF36E37
:100A500000EE00F0060E01D81200EA6002D0EE6A45
:0C0A6000FCD7F350E9601200EE6AFCD7EE
:040A6C0015EE00F093
:100A700025EE00F0F86A019C5BEC03F04DEC05F00C
:080A800026EC00F0FBD7120088
:080A8800434F4E5441444F520C
:090A9000203020612036363600CA
:020A9A00120048
:040A9C003031323390
:060AA00034353637383909
:00000001FF
