:020000040000FA
:06000000D0EF00F0120039
:020006000000F8
:08000800D9CFE6FFE1CFD9FFDB
:10001000FB0EDBCF90F0FC0EDBCF91F0FD0EDB068C
:10002000FE0E01E2DB06FD0EDBCF02F0FE0EDBCFA3
:1000300003F0033404E202500008000E03540DE202
:10004000FB0EDB5000019027FC0EDB509123FD0ED0
:10005000DB06FE0E01E2DB06E6D70001905100D080
:10006000E552E7CFD9FF120093689468956A8150F2
:1000700000018A6F8B6B82508C6F8D6B8C518D1150
:1000800008E18A518B1102E1836802D0010E836E70
:1000900026D08AC08EF08BC08FF08C07000E8D5B4F
:1000A0008D3504E28C510008000E8D5516E28EC08D
:1000B000E6FF8FC0E6FF8AC0E6FF8BC0E6FFA4DF45
:1000C000E552E552E552E55200018C07000E8D5BCA
:1000D00090C08AF091C08BF0E3D78AC083FFC7D766
:0200E00012000C
:0E00E200060EF66E000EF76E000EF86E0001B0
:1000F0000900F550856F0900F550866F03E18567AB
:1001000001D03DD00900F550806F0900F550816F96
:100110000900F550826F09000900F550E96E0900E9
:10012000F550EA6E090009000900F550836F0900D7
:10013000F550846F09000900F6CF87F0F7CF88F0FB
:10014000F8CF89F080C0F6FF81C0F7FF82C0F8FFCA
:100150000001835302E1845307E00900F550EE6E7D
:100160008307F8E28407F9D787C0F6FF88C0F7FF56
:1001700089C0F8FF00018507000E865BBFD712001B
:10018000000EF36E00EE00F0060E01D81200EA60D9
:1001900002D0EE6AFCD7F350E9601200EE6AFCD799
:1001A00015EE00F025EE00F0F86A019C71EC00F00D
:0C01B000DEEC00F034EC00F0FBD7120095
:0201BC0012002F
:00000001FF
