:020000040000FA
:06000000A7EF00F0120062
:020006000000F8
:08000800060EF66E000EF76E05
:10001000000EF86E00010900F550856F0900F550DB
:10002000866F03E1856701D03DD00900F550806FF0
:100030000900F550816F0900F550826F0900090031
:10004000F550E96E0900F550EA6E09000900090053
:10005000F550836F0900F550846F09000900F6CF51
:1000600087F0F7CF88F0F8CF89F080C0F6FF81C025
:10007000F7FF82C0F8FF0001835302E1845307E0D9
:100080000900F550EE6E8307F8E28407F9D787C0C0
:10009000F6FF88C0F7FF89C0F8FF00018507000E52
:0600A000865BBFD71200D1
:0A00A600D9CFE6FFE1CFD9FFE65203
:1000B000DF6A12D81AD830D8C2B4FED7C4508A6EBC
:1000C000DF2A2AD8C2B4FED7C4508B6EDF2A020EB4
:1000D000DF5CF1E1DF6AEFD73F0E926E070E966E9E
:1000E000936A946A8A6A8B6A1200410EC26EC16A70
:1000F0001200D9CFE6FFE1CFD9FFFE0EDB50070B90
:10010000F36EF346F346F346C70EC214F310C26E05
:10011000E552E7CFD9FF1200DFCFE6FFEADFE55275
:0E012000020EE66EB5EC00F0E552C28412004D
:02012E00000EC1
:10013000F36E00EE00F0060E01D81200EA6002D065
:0E014000EE6AFCD7F350E9601200EE6AFCD7BD
:02014E0015EEAC
:1001500000F025EE00F0F86A019C04EC00F0C0EC21
:0A01600000F053EC00F0FBD7120092
:06016A00FF0EE350E84E19
:100170001200000000D000D000D0E82EFAD7120004
:0201800012006B
:00000001FF
