:020000040000FA
:06000000C8EF00F0120041
:020006000000F8
:08000800D9CFE6FFE1CFD9FFDB
:10001000E652DF6A30D837D84DD84ED856D8DFCF21
:10002000E6FF35D8E552020EE66ED6EC00F0E5525A
:10003000C284C2B4FED7C4508A6EC450BE6EDF2ADA
:10004000DFCFE6FF24D8E552020EE66ED6EC00F0D4
:10005000E552C284C2B4FED7C4508C6EC450BB6E8D
:10006000DF2A020EDF5C01E1DF6AD9D7E552E552F3
:10007000E7CFD9FF12003F0E926E070E966E936A7D
:10008000946A956A1200410EC26EC16A1200D9CFFD
:10009000E6FFE1CFD9FFFE0EDB50070BF36EF34610
:1000A000F346F346C70EC214F310C26EE552E7CF13
:1000B000D9FF12008B6A12000C0EBD6EBA6E640E70
:1000C000BE6EBB6EF90ECB6E1200CC6A050ECA6E08
:0200D00012001C
:0E00D200060EF66E000EF76E000EF86E0001C0
:1000E0000900F550856F0900F550866F03E18567BB
:1000F00001D03DD00900F550806F0900F550816FA7
:100100000900F550826F09000900F550E96E0900F9
:10011000F550EA6E090009000900F550836F0900E7
:10012000F550846F09000900F6CF87F0F7CF88F00B
:10013000F8CF89F080C0F6FF81C0F7FF82C0F8FFDA
:100140000001835302E1845307E00900F550EE6E8D
:100150008307F8E28407F9D787C0F6FF88C0F7FF66
:1001600089C0F8FF00018507000E865BBFD712002B
:10017000000EF36E00EE00F0060E01D81200EA60E9
:1001800002D0EE6AFCD7F350E9601200EE6AFCD7A9
:1001900015EE00F025EE00F0F86A019C69EC00F025
:0C01A000E1EC00F004EC00F0FBD71200D2
:0401AC00FF0EE3500F
:1001B000E84E1200000000D000D000D0E82EFAD7A0
:0201C00012002B
:0201C200120029
:00000001FF
