:0600000000F0E6EF1EF027
:103DCA00FFFF000114EF1FF0FFFF400ED56E380E03
:103DDA00D66E1200FFFFFFFF070E8D6E140EFFFF57
:103DEA00E82EFDD7000E8D6E1200FFFFFFFF000EBA
:103DFA008A6E000E8C6E000E8D6E000E896E120099
:103E0A00FFFFFFFFFFFF070E936E000E956E000E79
:103E1A00966E060EC16E000E926E1200FFFFFFFF35
:103E2A0007EC1FF0FBEC1EF0E9EC1EF0FFFF000EA2
:103E3A00086E000E076E000E0A6E000E096E000E66
:103E4A000C6E000E0B6E000E056E000E046E000E58
:103E5A00036E000E066EF0EC1EF01BD0FFFF81A071
:103E6A0003D0016A012A02D0FFFF016AFFFF81A283
:103E7A0003D0026A022A02D0FFFF026AFFFF81A46E
:103E8A0002D0010E02D0FFFF000EFFFF0214011440
:103E9A00066EFFFF0650D8B4E1D7010E066ED58E26
:103EAA0016D0FFFFF2A413D0F2943C0ED66E044A49
:103EBA00052A81A402D0074A082AFFFF81A202D05C
:103ECA00094A0A2AFFFF81A002D00B4A0C2AFFFFE7
:103EDA002C0E045C010E0558D8A0E3D7D59E0850D5
:103EEA0004E1030E075CD8A008D0085006E10A0EC8
:103EFA00075CD8B002D08A8E02D0FFFF8A9EFFFFED
:103F0A000A5004E1030E095CD8A008D00A5006E161
:103F1A000A0E095CD8B002D08A8C02D0FFFF8A9CB4
:103F2A00FFFF000E896E0A5003E1030E095CD8B048
:103F3A0089800A5003E1050E095CD8B089820A50CB
:103F4A0003E1070E095CD8B089840A5003E1090E1F
:103F5A00095CD8B089860A5003E10B0E095CD8B017
:103F6A00898A0C5004E1030E0B5CD8A008D00C50CF
:103F7A0006E10A0E0B5CD8B002D08A8A02D0FFFF93
:103F8A008A9AFFFF000E8C6E0C5003E1030E0B5C45
:103F9A00D8B08C860C5003E1050E0B5CD8B08C8827
:103FAA000C5003E1070E0B5CD8B08C8A0C5003E16D
:103FBA00090E0B5CD8B08C8C0C5003E10B0E0B5C19
:103FCA00D8B08C8E750E016EF50EFFFFE82EFDD768
:103FDA00012EFBD7750E016EF50EFFFFE82EFDD7F9
:103FEA00012EFBD7750E016EF50EFFFFE82EFDD7E9
:063FFA00012EFBD71BD7CE
:020000040020DA
:08000000FFFFFFFFFFFFFFFF00
:020000040030CA
:0E000000FF260C0EFF0181FF0FC00FE00F4026
:00000001FF
