:020000040000FA
:0600000010EF01F01200F8
:020006000000F8
:08000800D9CFE6FFE1CFD9FFDB
:100010000A0EE1267ED884D887D8DE6ADD6A020E11
:10002000DB6A030EDB6A040EDB6A050EDB6A060E72
:10003000DB6A070EDB6A090EDB6A080EDB6A79D819
:10004000080EDB5015E18150200B01E0010E036E1C
:100050008150400B01E0010E026E8150800B01E0E7
:10006000010E02140314E76E080EE7CFDBFFE8D79A
:10007000010EF36E080EF3CFDBFFD58E060EDBCF3D
:1000800002F0070EDBCF03F0B90E025C0B0E035833
:1000900029E2F2A426D0F294E20ED66E080EDB50CE
:1000A00020E081BE07D0010EF36E090EF3CFDBFF17
:1000B000080EDB6A81BC07D0020EF36E090EF3CF87
:1000C000DBFF080EDB6A81BA07D0030EF36E090E60
:1000D000F3CFDBFF080EDB6A060EDB2A070E01E317
:1000E000DB2ACCD7090EDB508C6ED58EF294E20E53
:1000F000D66E0C0EE66EF0EC00F0E5528ED70A0ECE
:10010000E15C02E2E16AE552E16EE552E7CFD9FF38
:100110001200E00E936E956A966A060EC16E12008A
:100120008A6A8C6A8D6A1200480ED56EE20ED66E0F
:100130001200070E8D6EE66AF0EC00F0E5528D6A53
:020140001200AB
:0E014200060EF66E000EF76E000EF86E00014F
:100150000900F550856F0900F550866F03E185674A
:1001600001D03DD00900F550806F0900F550816F36
:100170000900F550826F09000900F550E96E090089
:10018000F550EA6E090009000900F550836F090077
:10019000F550846F09000900F6CF87F0F7CF88F09B
:1001A000F8CF89F080C0F6FF81C0F7FF82C0F8FF6A
:1001B0000001835302E1845307E00900F550EE6E1D
:1001C0008307F8E28407F9D787C0F6FF88C0F7FFF6
:1001D00089C0F8FF00018507000E865BBFD71200BB
:1001E000FF0EE350046E480E01D04C0EE76EE72E72
:1001F000FED7E76AE72EFED7042EF7D700001200DD
:10020000000EF36E00EE00F0060E01D81200EA6058
:1002100002D0EE6AFCD7F350E9601200EE6AFCD718
:1002200015EE00F025EE00F0F86A019CA1EC00F05C
:0C0230001EEC01F004EC00F0FBD7120003
:02023C001200AE
:020000040030CA
:0100010026D8
:010002000CF1
:010003000EEE
:0100050001F9
:010006008178
:010008000FE8
:01000900C036
:01000A000FE6
:01000B00E014
:01000C000FE4
:01000D0040B2
:00000001FF
