:020000040000FA
:0600000083EF02F0120084
:0A00060001002405000000010000C5
:04001000FA000000F2
:0C001400070EC16E926A936A946A956AA6
:10002000966A010E0101FC6FFD6BFE6BFF6BFA6BB4
:10003000FB6B000EFA25E96E010EFB21EA6EEF5014
:10004000816E8090FCC1E6FF63EC02F0E552808097
:100050000101FA2B000EFB23000EFA25E96E010EBA
:10006000FB21EA6EEF50816E8092FCC1E6FF63ECEB
:1000700002F0E55280820101FA2B000EFB23000EF4
:10008000FA25E96E010EFB21EA6EEF50816E809435
:10009000FCC1E6FF63EC02F0E55280840101FA2B1B
:1000A000000EFB23000EFA25E96E010EFB21EA6E1D
:1000B000EF50816E8096FCC1E6FF63EC02F0E552E2
:1000C00080860101FA2B000EFB23000EFA25E96E53
:1000D000010EFB21EA6EEF50816E8098FCC1E6FFB5
:1000E00063EC02F0E55280880101FA2B000EFB233D
:1000F000000EFA25E96E010EFB21EA6EEF50816ECB
:10010000809AFCC1E6FF63EC02F0E552808A0101AF
:10011000FA2B000EFB23000EFA25E96E010EFB21DF
:10012000EA6EEF50816E8290FCC1E6FF63EC02F054
:10013000E55282800101FA2B000EFB23000EFA2506
:10014000E96E010EFB21EA6EEF50816E8292FCC1D6
:10015000E6FF63EC02F0E55282820101FA2B000E09
:10016000FB23000EFA25E96E010EFB21EA6EEF502B
:10017000816E8294FCC1E6FF63EC02F0E55282845A
:100180000101FA2B000EFB23000EFA25E96E010E89
:10019000FB21EA6EEF50816E8296FCC1E6FF63ECB4
:1001A00002F0E55282860101FA2B000EFB23000EBD
:1001B000FA25E96E010EFB21EA6EEF50816E8298FE
:1001C000FCC1E6FF63EC02F0E55282880101FA2BE4
:1001D000000EFB23000EFA25E96E010EFB21EA6EEC
:1001E000EF50816E829AFCC1E6FF63EC02F0E552AB
:1001F000828A0101FA2B000EFB23000EFA25E96E1C
:10020000010EFB21EA6EEF50816E829CFCC1E6FF7D
:1002100063EC02F0E552828C0101FA2B000EFB2305
:10022000000EFA25E96E010EFB21EA6EEF50816E99
:10023000829EFCC1E6FF63EC02F0E552828E010172
:10024000FA2B000EFB23000EFA25E96E010EFB21AE
:10025000EA6EEF50816E8390FCC1E6FF63EC02F022
:10026000E55283800101FA2B000EFB23000EFA25D4
:10027000E96E010EFB21EA6EEF50816E8392FCC1A4
:10028000E6FF63EC02F0E55283820101FA2B000ED7
:10029000FB23000EFA25E96E010EFB21EA6EEF50FA
:1002A000816E8394FCC1E6FF63EC02F0E552838427
:1002B0000101FA2B000EFB23000EFA25E96E010E58
:1002C000FB21EA6EEF50816E8396FCC1E6FF63EC82
:1002D00002F0E55283860101FA2B000EFB23000E8B
:1002E000FA25E96E010EFB21EA6EEF50816E8398CC
:1002F000FCC1E6FF63EC02F0E55283880101FA2BB2
:10030000000EFB23000EFA25E96E010EFB21EA6EBA
:10031000EF50816E839AFCC1E6FF63EC02F0E55278
:10032000838A0101FA2B000EFB23000EFA25E96EE9
:10033000010EFB21EA6EEF50816E839CFCC1E6FF4B
:1003400063EC02F0E552838C0101FA2B000EFB23D3
:10035000000EFA25E96E010EFB21EA6EEF50816E68
:10036000839EFCC1E6FF63EC02F0E552838E01013F
:10037000FA2B000EFB23000EFA25E96E010EFB217D
:10038000EA6EEF50816E8490FCC1E6FF63EC02F0F0
:10039000E55284800101FA2B000EFB23000EFA25A2
:1003A000E96E010EFB21EA6EEF50816E8492FCC172
:1003B000E6FF63EC02F0E55284820101FA2B000EA5
:1003C000FB23000EFA25E96E010EFB21EA6EEF50C9
:1003D000816E8494FCC1E6FF63EC02F0E5528484F4
:1003E0000101180EFA5F000EFB5BFE2BFF230A0EC5
:1003F000FFAF02D0D89003D0FE5D000EFF5912E38C
:10040000010EFA25FA6F000EFB21FB6FFE6BFF6BEE
:10041000500EFBAF02D0D89003D0FA5D000EFB590E
:0804200001E301D006D6120031
:08042800060EF66E000EF76EE1
:10043000000EF86E00010900F550856F0900F550B7
:10044000866F03E1856701D03DD00900F550806FCC
:100450000900F550816F0900F550826F090009000D
:10046000F550E96E0900F550EA6E0900090009002F
:10047000F550836F0900F550846F09000900F6CF2D
:1004800087F0F7CF88F0F8CF89F080C0F6FF81C001
:10049000F7FF82C0F8FF0001835302E1845307E0B5
:1004A0000900F550EE6E8307F8E28407F9D787C09C
:1004B000F6FF88C0F7FF89C0F8FF00018507000E2E
:0604C000865BBFD71200AD
:0A04C600FF0EE350026E480E01D055
:1004D0004C0EE76EE72EFED7E76AE72EFED7022E18
:0604E000F7D70000120036
:0A04E600000EF36E00EE00F0060EAB
:1004F00001D81200EA6002D0EE6AFCD7F350E9603E
:060500001200EE6AFCD7B8
:0A05060015EE00F025EE00F0F86A93
:10051000019C14EC02F091EC02F00AEC00F0FBD725
:020520001200C7
:020522001200C5
:0C052400000000000000000000000000CB
:1005300000000000000000000000000000000000BB
:1005400000FFC9C9C9C1009F2040209F00FFC9C941
:10055000C9C100FF4040404000870870088700FF85
:10056000040810FF00000040201020400040201030
:10057000204000000000000000000000000000001B
:10058000000000000000000000000000000000006B
:10059000000000000000000000000000000000005B
:1005A000000000000000000000000000000000004B
:1005B000000000000000000000000000000000003B
:1005C000000000000000000000000000000000002B
:1005D000000000000000000000000000000000001B
:1005E000000000000000000000000000000000000B
:1005F00000000000000000000000000000000000FB
:1006000000000000000000000000000000000000EA
:0E0610000000000000000000000000000000DC
:00000001FF
