:020000040000FA
:06000000DAEF02F012002D
:0A0006000100E40500008A0000007C
:040010000A000000E2
:0C001400000000000000000000000000E0
:1000200000000000000000000000000000D01200EE
:100030000F0EE66EBAEC02F0E55200D01200050E8B
:10004000E66EBAEC02F0E55200D01200280EE66E21
:1000500090EC00F0E552060EE66EF0EC01F0E55291
:100060000E0EE66EF0EC01F0E552800EE66EF0EC5E
:1000700001F0E552D00EE66E050EE66EA0EC01F042
:10008000E552E5520001966B0A0E965D47E2956BCC
:100090000A0E955D41E2946B0A0E945D3BE2CF0E31
:1000A000E66EF0EC01F0E55200019451EA6A8A0F25
:1000B000E96E000EEA22EF50E66EC9EC01F0E5525F
:1000C000CE0EE66EF0EC01F0E55200019551EA6AC1
:1000D0008A0FE96E000EEA22EF50E66EC9EC01F0DD
:1000E000E552CD0EE66EF0EC01F0E55200019651BE
:1000F000EA6A8A0FE96E000EEA22EF50E66EC9EC5A
:1001000001F0E552640EE66EA3EC02F0E552000148
:10011000942BC2D7952BBCD7962BB6D7B3D712004A
:10012000D9CFE6FFE1CFD9FFF00E81169316939C4D
:10013000939A93988A9C8A9A8A9818EC00F0300EC9
:10014000E66EF0EC01F0E552050EE66EA3EC02F06F
:10015000E552300EE66EF0EC01F0E552010EE66E6F
:10016000A3EC02F0E552320EE66EF0EC01F0E5523F
:1001700084EC02F0000901E0FBD784EC02F00009F6
:1001800001E0FBD7FE0EDBCFE6FFF0EC01F0E5521D
:1001900084EC02F0000901E0FBD7080EE66EF0ECFB
:1001A00001F0E55284EC02F0000901E0FBD70F0EEC
:1001B000E66EF0EC01F0E55284EC02F0000901E09B
:1001C000FBD7010EE66EF0EC01F0E55284EC02F094
:1001D000000901E0FBD7040EE66EF0EC01F0E552F9
:1001E00084EC02F0000901E0FBD7800EE66E4EECD5
:0E01F00001F0E55200D0E552E7CFD9FF120032
:0201FE00060EEB
:10020000F66E000EF76E000EF86E00010900F55054
:10021000856F0900F550866F03E1856701D03DD0F9
:100220000900F550806F0900F550816F0900F55005
:10023000826F09000900F550E96E0900F550EA6E79
:10024000090009000900F550836F0900F550846F1B
:1002500009000900F6CF87F0F7CF88F0F8CF89F0D2
:1002600080C0F6FF81C0F7FF82C0F8FF0001835312
:1002700002E1845307E00900F550EE6E8307F8E2CF
:100280008407F9D787C0F6FF88C0F7FF89C0F8FF59
:0C02900000018507000E865BBFD712003E
:04029C00D9CFE6FFD1
:1002A000E1CFD9FFF00E93168116FE0EDB508009C8
:1002B000E8380F0B0F0B81128A9C8A9A0AEC00F027
:1002C0008A880AEC00F08A98F00E8116FE0EDB5048
:1002D0000F0B81120AEC00F08A880AEC00F08A9871
:0E02E0000F0E931200D0E552E7CFD9FF1200A7
:0202EE00D9CF66
:1002F000E6FFE1CFD9FFF00E93168116FE0EDB501C
:100300004009E8380F0B0F0B81128A9C8A9A0AEC7D
:1003100000F08A880AEC00F08A98F00E8116FE0E32
:10032000DB500F0B81120AEC00F08A880AEC00F017
:100330008A980F0E931200D0E552E7CFD9FF120032
:10034000D9CFE6FFE1CFD9FFFD0EDBCFF6FFFE0EE2
:10035000DBCFF7FF0800F55017E084EC02F000094E
:1003600001E0FBD7FD0EDBCFF6FFFE0EDBCFF7FF84
:100370000800F550E66EC9EC01F0E552FD0EDB2AEF
:10038000FE0E01E3DB2AE0D700D0E552E7CFD9FF2C
:02039000120059
:0E039200D9CFE6FFE1CFD9FFF00E931681160A
:1003A000FE0EDB380F0B0F0B81128A8A8A9C0AEC37
:1003B00000F08A880AEC00F08A98F00E8116FE0E92
:1003C000DB500F0B81120AEC00F08A880AEC00F077
:1003D0008A980F0E931200D0E552E7CFD9FF120092
:1003E000D9CFE6FFE1CFD9FFF00E93168116FE0EAE
:1003F000DB380F0B0F0B81128A9C8A9A0AEC00F0F3
:100400008A880AEC00F08A98F00E8116FE0EDB5006
:100410000F0B81120AEC00F08A880AEC00F08A982F
:0E0420000F0E931200D0E552E7CFD9FF120065
:02042E00D9CF24
:10043000E6FFE1CFD9FFFD0EDBCFE9FFFE0EDBCFFC
:10044000EAFFEF5016E084EC02F0000901E0FBD770
:10045000FD0EDBCFE9FFFE0EDBCFEAFFEF50E66ECD
:10046000C9EC01F0E552FD0EDB2AFE0E01E3DB2AAA
:0C047000E2D700D0E552E7CFD9FF120020
:04047C00D9CFE6FFEF
:10048000E1CFD9FFE6528A8C8A8A0AEC00F08A888A
:100490000AEC00F08138F00BF00BDF6E8A980AEC62
:1004A00000F08A880AEC00F00F0E8114DF128A989F
:1004B0008A9A8A9CDF5000D0E552E552E7CFD9FFF7
:0204C000120028
:0E04C200D9CFE6FFE1CFD9FFE6528A8C8A9AA5
:1004D0000AEC00F08A880AEC00F08138F00BF00B8F
:1004E000DF6E8A980AEC00F08A880AEC00F00F0EA2
:1004F0008114DF128A988A9C7F0EDF1400D0E552A7
:08050000E552E7CFD9FF12001C
:080508008A8C8A9A0AEC00F0CB
:100510008A880AEC00F081A60BD08A980AEC00F0D9
:100520008A880AEC00F08A988A9C010E0BD00AD0C7
:100530008A980AEC00F08A880AEC00F08A988A9C73
:06054000000E00D01200C5
:0A054600FF0EE350036EEF0E01D02C
:10055000F30EE76EE72EAAEF02F00C0E026EE76ACA
:10056000E72EB0EF02F0022EAFEF02F0032EA8EF5D
:0405700002F0120083
:0C057400FF0EE350036E480E01D04C0E49
:10058000E76EE72EFED7E76AE72EFED7032EF7D7F2
:040590000000120055
:0C059400000EF36E00EE00F0060E01D821
:1005A0001200EA6002D0EE6AFCD7F350E960120054
:0405B000EE6AFCD71C
:0C05B40015EE00F025EE00F0F86A019C46
:1005C000FFEC00F0F1EC02F026EC00F0FBD712009B
:1005D000434F4E5441444F5220302061203636362E
:0105E000001A
:0205E200120005
:0A05E4003031323334353637383900
:00000001FF
