:100000000C9463000C948B000C948B000C948B006C
:100010000C948B000C948B000C948B000C948B0034
:100020000C948B000C948B000C948B000C948B0024
:100030000C948B000C948B000C948B000C948B0014
:100040000C9448030C948B000C9464060C94960654
:100050000C948B000C948B000C948B000C948B00F4
:100060000C948B000C948B0000000008000201002F
:100070000003040700000000000000000102040863
:100080001020408001020408102001020408102002
:10009000040404040404040402020202020203032E
:1000A00003030303000000002300260029000000D2
:1000B0000000250028002B0000000000240027007D
:1000C0002A00D301C60611241FBECFEFD8E0DEBF41
:1000D000CDBF11E0A0E0B1E0ECEAF2E102C0059092
:1000E0000D92AE31B107D9F721E0AEE1B1E001C028
:1000F0001D92A63DB207E1F710E0C6ECD0E004C0C7
:100100002297FE010E945009C23CD107C9F70E9404
:1001100032070C9454090C94000026E040E855E2A4
:1001200060E070E089E391E00E94020661E0809166
:100130000A010E94870460E0809108010E94870400
:1001400060E0809106010E94870461E080910401D3
:100150000E94870461E0809102010E94870461E0AF
:10016000809100010E9487041092210110922001C9
:1001700010921F0110921E0108954F925F926F928C
:100180007F928F929F92AF92BF92CF92DF92EF9227
:10019000FF920F931F93CF93DF9360E082E291E091
:1001A0000E948F022B013C0182E291E00E94030336
:1001B0004B015C018EE00E944104BC01882777FD61
:1001C0008095982F0E9415082AE038E240EA5BE308
:1001D0000E94C9086B017C01809108010E94F6040D
:1001E000EC01809106010E94F6048C016AE070E047
:1001F00080E090E00E94C103809120019091210154
:100200000196909321018093200180911E0190918D
:100210001F01019690931F0180931E0120E030E0A2
:1002200040E850E4C701B6010E94A70787FF3FC01E
:10023000219759F061E0809102010E94C0048091F1
:1002400008010E94F604EC01F3CF60E08091020106
:100250000E94C0042AE939E949E95FE3C701B60110
:100260000E94A70787FF09C080912001909121017A
:10027000843F914014F061E012C02AE939E949E96C
:100280005FE3C701B6010E94C50818166CF580919E
:10029000200190912101843F914034F160E08AE097
:1002A0000E94C00410922101109220011DC020E084
:1002B00030E040E850E4C701B6010E94C5081816B6
:1002C0009CF40130110559F061E0809104010E9415
:1002D000C004809106010E94F6048C01F2CF60E018
:1002E000809104010E94C00480911E0190911F0121
:1002F000883E93400CF446C020E030E048EB51E4E7
:10030000C301B2010E94C50887FD30C061E086E0EC
:100310000E94C00410921F0110921E0120E030E0E4
:1003200048E252E4C501B4010E94A707181654F030
:1003300061E087E00E94C00468E873E180E090E03B
:100340000E94C10360E087E0DF91CF911F910F9180
:10035000FF90EF90DF90CF90BF90AF909F908F90E5
:100360007F906F905F904F900C94C00420E030E03D
:1003700048EB51E4C301B2010E94A70787FF02C006
:1003800060E0C5CFDF91CF911F910F91FF90EF906B
:10039000DF90CF90BF90AF909F908F907F906F90A5
:1003A0005F904F90089526E046E16CE082E291E094
:1003B0000C94DA01FC0166834783208781E08587FE
:1003C0000895DF92EF92FF920F931F93CF93DF93E5
:1003D000EC010E94920309851A852B853C856017E4
:1003E00071078207930720F419861A861B861C86DC
:1003F0002D85211111C009851A852B853C85DC01CD
:10040000CB01801B910BA20BB30B803D9740A10544
:10041000B10510F481E07BC01D860E9492036987BC
:100420007A878B879C871C821B821A82198218828A
:1004300061E08E810E94C0046AEF70E080E090E08D
:100440000E94C10361E08E810E94870460E08E817A
:100450000E94C00464E170E080E090E00E94C1036B
:10046000F89461E08E810E94C00488E290E00E94CE
:10047000FB0360E08E810E948704F12CD12C81E087
:10048000E12C082F10E08E810E94F604801791075E
:1004900041F4E39481E090E00E94FB038FEFE812C7
:1004A000F2CF8E810E94F6049FEFE916C9F023E097
:1004B0002F1590F4F0FC10C09D2D9695969596956D
:1004C000FE01E90FF11D9081990F908328852E156B
:1004D00010F491609083D394F39495E5F912D0CF02
:1004E000789427E22D1590F42C8130E048818981A1
:1004F00090E0840F911D4A81840F911D4B81840FE0
:10050000911D99272817390709F484CF80E0DF91DE
:10051000CF911F910F91FF90EF90DF900895CF92B0
:10052000DF92EF92FF920F931F93CF93DF93EC0133
:10053000162F0E94E101882309F450C08F818B306F
:1005400031F008F44BC08551823078F047C06A81A1
:1005500070E080E090E00E941308112309F443C08A
:1005600020E030E040E151E42AC00A81602F6F773B
:1005700070E080E090E00E94150820E030E040E864
:1005800053E40E94C9086B017C016B8170E080E03C
:1005900090E00E9415089B01AC01C701B6010E94C2
:1005A000430720E030E040E251E40E94AB0707FD42
:1005B00090581123D9F020E030E040E151E40E944E
:1005C000C90820E030E040EA50E40E94AB0720E098
:1005D00030E040E052E40E94430708C020E030E0F1
:1005E00040EC5FE705C09B01AC0102C09B01AC0180
:1005F000B901CA01DF91CF911F910F91FF90EF9048
:10060000DF90CF900895CF92DF92EF92FF92CF9339
:10061000DF93EC010E94E101882379F18F818B3017
:1006200029F158F18551823040F5688170E080E011
:1006300090E00E94130820E030E040E853E40E947C
:10064000C9086B017C01698170E080E090E00E9444
:1006500015089B01AC01C701B6010E94430720E0C9
:1006600030E040E251E40E94AB070BC0688170E0CB
:1006700080E090E00E94130804C060E070E080EC2D
:100680009FE7DF91CF91FF90EF90DF90CF9008959B
:100690001F920F920FB60F9211242F933F938F93B7
:1006A0009F93AF93BF938091310190913201A091BC
:1006B0003301B09134013091300123E0230F2D3705
:1006C00020F40196A11DB11D05C026E8230F029656
:1006D000A11DB11D2093300180933101909332010F
:1006E000A0933301B093340180913501909136018C
:1006F000A0913701B09138010196A11DB11D8093E1
:10070000350190933601A0933701B0933801BF9122
:10071000AF919F918F913F912F910F900FBE0F90AE
:100720001F9018952FB7F8946091310170913201A4
:1007300080913301909134012FBF08953FB7F89411
:100740008091350190913601A0913701B091380127
:1007500026B5A89B05C02F3F19F00196A11DB11D1C
:100760003FBF6627782F892F9A2F620F711D811D39
:10077000911D42E0660F771F881F991F4A95D1F798
:1007800008958F929F92AF92BF92CF92DF92EF9295
:10079000FF926B017C010E949E034B015C01C1141E
:1007A000D104E104F104F1F00E9441070E949E038C
:1007B000681979098A099B09683E7340810591058A
:1007C00070F321E0C21AD108E108F10888EE880E22
:1007D00083E0981EA11CB11CC114D104E104F104F2
:1007E00029F7DDCFFF90EF90DF90CF90BF90AF90D3
:1007F0009F908F9008958230910538F0880F991F4F
:10080000880F991F05970197F1F70895789484B59B
:10081000826084BD84B5816084BD85B5826085BDFC
:1008200085B5816085BDEEE6F0E0808181608083E2
:10083000E1E8F0E0108280818260808380818160C5
:100840008083E0E8F0E0808181608083E1EBF0E08C
:10085000808184608083E0EBF0E080818160808330
:10086000EAE7F0E080818460808380818260808319
:100870008081816080838081806880831092C10044
:1008800008958E3008F08E50877020910C0190E40E
:10089000299F90011124822B80937C0080917A0003
:1008A000806480937A0080917A0086FDFCCF8091ED
:1008B00078002091790090E0922B0895833081F0A8
:1008C00028F4813099F08230A1F008958730A9F0A2
:1008D0008830B9F08430D1F4809180008F7D03C0DE
:1008E000809180008F7780938000089584B58F7702
:1008F00002C084B58F7D84BD08958091B0008F774C
:1009000003C08091B0008F7D8093B0000895CF9395
:10091000DF9390E0FC01E458FF4F2491FC01E05785
:10092000FF4F8491882349F190E0880F991FFC01C3
:10093000E854FF4FA591B49182559F4FFC01C5919A
:10094000D4919FB7611108C0F8948C9120958223AF
:100950008C93888182230AC0623051F4F8948C9180
:10096000322F309583238C938881822B888304C017
:10097000F8948C91822B8C939FBFDF91CF91089537
:100980000F931F93CF93DF931F92CDB7DEB7282F1E
:1009900030E0F901E859FF4F8491F901E458FF4F25
:1009A0001491F901E057FF4F04910023C9F0882307
:1009B00021F069830E945E046981E02FF0E0EE0F70
:1009C000FF1FE255FF4FA591B4919FB7F8948C910A
:1009D000611103C01095812301C0812B8C939FBFAF
:1009E0000F90DF91CF911F910F910895CF93DF93D7
:1009F000282F30E0F901E859FF4F8491F901E458BC
:100A0000FF4FD491F901E057FF4FC491CC2391F0EF
:100A100081110E945E04EC2FF0E0EE0FFF1FEC55F9
:100A2000FF4FA591B4912C912D2381E090E021F40A
:100A300080E002C080E090E0DF91CF910895FC015A
:100A4000818D228D90E0805C9F4F821B91098F7376
:100A500099270895FC01918D828D981731F0828D30
:100A6000E80FF11D858D90E008958FEF9FEF0895B9
:100A7000FC01918D828D981761F0828DDF01A80FA6
:100A8000B11D5D968C91928D9F5F9F73928F90E0C8
:100A900008958FEF9FEF08958CEB96E0892B49F036
:100AA00080E090E0892B29F00E94BC0681110C9413
:100AB00000000895FC01848DDF01A80FB11DA35A29
:100AC000BF4F2C91848D90E001968F739927848F6E
:100AD000A689B7892C93A089B1898C9180648C9365
:100AE000938D848D981306C00288F389E02D808150
:100AF0008F7D80830895CF93DF93EC01888D8823C9
:100B0000C9F0EA89FB89808185FD05C0A889B9897A
:100B10008C9186FD0FC00FB607FCF5CF808185FF55
:100B2000F2CFA889B9898C9185FFEDCFCE010E94C3
:100B30005A05E7CFDF91CF910895CF92DF92FF92D0
:100B40000F931F93CF93DF931F92CDB7DEB76C0146
:100B500081E0D60158968C9358975B969C915B9751
:100B60005C968C915C97981307C05096ED91FC9120
:100B70005197808185FD2EC0F601038D10E00F5F37
:100B80001F4F0F731127F02EF601848DF81211C03C
:100B90000FB607FCF9CFD6015096ED91FC91519715
:100BA000808185FFF1CFC60169830E945A05698162
:100BB000EBCF838DE80FF11DE35AFF4F6083D60121
:100BC0005B960C935B975296ED91FC9153978081C5
:100BD00080620CC0D6015696ED91FC9157976083C8
:100BE0005096ED91FC91519780818064808381E0E3
:100BF00090E00F90DF91CF911F910F91FF90DF90C8
:100C0000CF900895BF92CF92DF92EF92FF92CF9351
:100C1000DF93EC016A017B01B22EE889F98982E059
:100C20008083411581EE580761057105A1F060E0F0
:100C300079E08DE390E0A70196010E942C092150F4
:100C40003109410951095695479537952795211541
:100C500080E1380798F0E889F989108260E874E843
:100C60008EE190E0A70196010E942C0921503109E4
:100C7000410951095695479537952795EC85FD858E
:100C80003083EE85FF852083188EEC89FD89B08244
:100C9000EA89FB89808180618083EA89FB89808180
:100CA00088608083EA89FB89808180688083EA8903
:100CB000FB8980818F7D8083DF91CF91FF90EF90C2
:100CC000DF90CF90BF9008951F920F920FB60F92B2
:100CD00011242F938F939F93EF93FF93E0914901FA
:100CE000F0914A018081E0914F01F091500182FD25
:100CF00012C09081809152018F5F8F7320915301B8
:100D0000821751F0E0915201F0E0E75CFE4F958FC1
:100D10008093520101C08081FF91EF919F918F914B
:100D20002F910F900FBE0F901F9018951F920F924A
:100D30000FB60F9211242F933F934F935F936F93AE
:100D40007F938F939F93AF93BF93EF93FF9389E329
:100D500091E00E945A05FF91EF91BF91AF919F9151
:100D60008F917F916F915F914F913F912F910F9054
:100D70000FBE0F901F90189589E391E00E941F0508
:100D800021E0892B09F420E0822F089510923C0184
:100D900010923B0188EE93E0A0E0B0E080933D012B
:100DA00090933E01A0933F01B093400181E191E017
:100DB00090933A018093390185EC90E0909346013D
:100DC0008093450184EC90E0909348018093470123
:100DD00080EC90E090934A018093490181EC90E08F
:100DE00090934C0180934B0182EC90E090934E01E4
:100DF00080934D0186EC90E09093500180934F01D9
:100E00001092520110925301109254011092550108
:100E10000895CF92DF92EF92FF920F931F93CF939B
:100E2000DF937C016A01EB0100E010E00C151D0569
:100E300071F06991D701ED91FC910190F081E02D65
:100E4000C7010995892B19F00F5F1F4FEFCFC8011C
:100E5000DF91CF911F910F91FF90EF90DF90CF9096
:100E6000089508950E9406040E9431070E948D0093
:100E7000CCE4D5E00E94BD002097E1F30E944C0530
:100E8000F9CF08955058BB27AA270ED044C135D1B9
:100E900030F03AD120F031F49F3F11F41EF42AC112
:100EA0000EF4E095E7FB20C1E92F46D180F3BA1795
:100EB000620773078407950718F071F49EF55EC109
:100EC0000EF4E0950B2EBA2FA02D0B01B901900165
:100ED0000C01CA01A0011124FF27591B99F0593FA9
:100EE00050F4503E68F11A16F040A22F232F342FF1
:100EF0004427585FF3CF469537952795A795F0403F
:100F00005395C9F77EF41F16BA0B620B730B840B53
:100F1000BAF09150A1F0FF0FBB1F661F771F881F0B
:100F2000C2F70EC0BA0F621F731F841F48F4879563
:100F300077956795B795F7959E3F08F0B3CF939552
:100F4000880F08F09927EE0F979587950895A8D0F8
:100F500008F481E008950CD0DEC0D6D040F0CDD0AA
:100F600030F021F45F3F19F0BFC0511108C1C2C079
:100F7000E3D098F39923C9F35523B1F3951B550B8F
:100F8000BB27AA2762177307840738F09F5F5F4F5C
:100F9000220F331F441FAA1FA9F333D00E2E3AF09D
:100FA000E0E830D091505040E695001CCAF729D0B7
:100FB000FE2F27D0660F771F881FBB1F2617370706
:100FC0004807AB07B0E809F0BB0B802DBF01FF2736
:100FD00093585F4F2AF09E3F510568F085C0CFC0FF
:100FE0005F3FECF3983EDCF3869577956795B79570
:100FF000F7959F5FC9F7880F911D9695879597F98B
:101000000895E1E0660F771F881FBB1F6217730703
:101010008407BA0720F0621B730B840BBA0BEE1F18
:1010200088F7E0950895E89409C097FB3EF4909501
:101030008095709561957F4F8F4F9F4F9923A9F0B1
:10104000F92F96E9BB279395F69587957795679540
:10105000B795F111F8CFFAF4BB0F11F460FF1BC084
:101060006F5F7F4F8F4F9F4F16C0882311F096E917
:1010700011C0772321F09EE8872F762F05C06623C5
:1010800071F096E8862F70E060E02AF09A95660F7E
:10109000771F881FDAF7880F9695879597F9089537
:1010A000990F0008550FAA0BE0E8FEEF1616170679
:1010B000E807F907C0F012161306E407F50798F0E1
:1010C000621B730B840B950B39F40A2661F0232BFA
:1010D000242B252B21F408950A2609F4A140A69576
:1010E0008FEF811D811D089597F99F6780E870E05B
:1010F00060E008959FEF80EC089500240A9416168E
:10110000170618060906089500240A9412161306F5
:10111000140605060895092E0394000C11F4882383
:1011200052F0BB0F40F4BF2B11F460FF04C06F5F9F
:101130007F4F8F4F9F4F089557FD9058440F551F75
:1011400059F05F3F71F04795880F97FB991F61F049
:101150009F3F79F087950895121613061406551FC0
:10116000F2CF4695F1DF08C0161617061806991F2C
:10117000F1CF86957105610508940895E894BB2721
:1011800066277727CB0197F908958ADF08F48FEF58
:1011900008950BD0C0CFB1DF28F0B6DF18F095234B
:1011A00009F0A2CFA7CF1124EACFC6DFA0F3959F05
:1011B000D1F3950F50E0551F629FF001729FBB273E
:1011C000F00DB11D639FAA27F00DB11DAA1F649FEA
:1011D0006627B00DA11D661F829F2227B00DA11D9D
:1011E000621F739FB00DA11D621F839FA00D611D23
:1011F000221F749F3327A00D611D231F849F600D44
:10120000211D822F762F6A2F11249F5750408AF07C
:10121000E1F088234AF0EE0FFF1FBB1F661F771F08
:10122000881F91505040A9F79E3F510570F05CCF48
:10123000A6CF5F3FECF3983EDCF3869577956795F4
:10124000B795F795E7959F5FC1F7FE2B880F911D26
:101250009695879597F90895A1E21A2EAA1BBB1BB4
:10126000FD010DC0AA1FBB1FEE1FFF1FA217B30772
:10127000E407F50720F0A21BB30BE40BF50B661F88
:10128000771F881F991F1A9469F76095709580954C
:1012900090959B01AC01BD01CF010895EE0FFF1F9A
:0C12A0000590F491E02D0994F894FFCF24
:1012AC00060005000400030002000A000100000013
:0E12BC00009D0509071F0538052A057B050062
:00000001FF
