:020000040000FA
:0600000058EF01F01200B0
:020006000000F8
:08000800070EC16E926A936AB3
:10001000946A956A966A010E00018B6F8C6B8A6BED
:10002000816880908BC0E6FF38EC01F0E55280805B
:10003000020E816E80928BC0E6FF38EC01F0E55233
:100040008082040E816E80948BC0E6FF38EC01F054
:10005000E5528084080E816E80968BC0E6FF38ECF6
:1000600001F0E5528086100E816E80988BC0E6FF0D
:1000700038EC01F0E5528088200E816E809A8BC0AA
:10008000E6FF38EC01F0E552808A816882908BC0EF
:10009000E6FF38EC01F0E5528280816A82928BC0E3
:1000A000E6FF38EC01F0E5528282816882948BC0D1
:1000B000E6FF38EC01F0E5528284816A82968BC0BB
:1000C000E6FF38EC01F0E5528286816882988BC0A9
:1000D000E6FF38EC01F0E5528288C10E816E829A0B
:1000E0008BC0E6FF38EC01F0E552828AC10E816ECA
:1000F000829C8BC0E6FF38EC01F0E552828CC10E89
:10010000816E829E8BC0E6FF38EC01F0E552828E54
:10011000816A83908BC0E6FF38EC01F0E552838062
:10012000816A83928BC0E6FF38EC01F0E55283824E
:10013000816A83948BC0E6FF38EC01F0E55283843A
:10014000080E816E83968BC0E6FF38EC01F0E55215
:100150008386100E816E83988BC0E6FF38EC01F029
:10016000E5528388200E816E839A8BC0E6FF38ECBF
:1001700001F0E552838A400E816E839C8BC0E6FFBE
:1001800038EC01F0E552838C810E816E839E8BC02A
:10019000E6FF38EC01F0E552838E020E816E84900A
:1001A0008BC0E6FF38EC01F0E5528480040E816ECE
:1001B00084928BC0E6FF38EC01F0E55284828168BE
:1001C00084948BC0E6FF38EC01F0E552848428D794
:0201D00012001B
:0E01D200060EF66E000EF76E000EF86E0001BF
:1001E0000900F550856F0900F550866F03E18567BA
:1001F00001D03DD00900F550806F0900F550816FA6
:100200000900F550826F09000900F550E96E0900F8
:10021000F550EA6E090009000900F550836F0900E6
:10022000F550846F09000900F6CF87F0F7CF88F00A
:10023000F8CF89F080C0F6FF81C0F7FF82C0F8FFD9
:100240000001835302E1845307E00900F550EE6E8C
:100250008307F8E28407F9D787C0F6FF88C0F7FF65
:1002600089C0F8FF00018507000E865BBFD712002A
:10027000FF0EE350026E480E01D04C0EE76EE72EE3
:10028000FED7E76AE72EFED7022EF7D7000012004E
:10029000000EF36E00EE00F0060E01D81200EA60C8
:1002A00002D0EE6AFCD7F350E9601200EE6AFCD788
:1002B00015EE00F025EE00F0F86A019CE9EC00F084
:0C02C00066EC01F004EC00F0FBD712002B
:0202CC0012001E
:00000001FF
